{
  "_format": "hh-sol-artifact-1",
  "contractName": "AssetManager",
  "sourceName": "contracts/AssetManager.sol",
  "abi": [
    {
      "inputs": [
        {
          "internalType": "uint256",
          "name": "_deviationThreshold",
          "type": "uint256"
        }
      ],
      "stateMutability": "nonpayable",
      "type": "constructor"
    },
    {
      "inputs": [
        {
          "internalType": "address",
          "name": "owner",
          "type": "address"
        }
      ],
      "name": "OwnableInvalidOwner",
      "type": "error"
    },
    {
      "inputs": [
        {
          "internalType": "address",
          "name": "account",
          "type": "address"
        }
      ],
      "name": "OwnableUnauthorizedAccount",
      "type": "error"
    },
    {
      "anonymous": false,
      "inputs": [
        {
          "indexed": false,
          "internalType": "uint256",
          "name": "assetId",
          "type": "uint256"
        },
        {
          "indexed": false,
          "internalType": "string",
          "name": "name",
          "type": "string"
        }
      ],
      "name": "AssetCreated",
      "type": "event"
    },
    {
      "anonymous": false,
      "inputs": [
        {
          "indexed": false,
          "internalType": "uint256",
          "name": "assetId",
          "type": "uint256"
        },
        {
          "indexed": false,
          "internalType": "string",
          "name": "dataPointName",
          "type": "string"
        },
        {
          "indexed": false,
          "internalType": "int256",
          "name": "value",
          "type": "int256"
        },
        {
          "indexed": false,
          "internalType": "uint256",
          "name": "timestamp",
          "type": "uint256"
        }
      ],
      "name": "DataPointAdded",
      "type": "event"
    },
    {
      "anonymous": false,
      "inputs": [
        {
          "indexed": false,
          "internalType": "uint256",
          "name": "assetId",
          "type": "uint256"
        },
        {
          "indexed": false,
          "internalType": "string",
          "name": "dataPointName",
          "type": "string"
        },
        {
          "indexed": false,
          "internalType": "int256",
          "name": "value",
          "type": "int256"
        },
        {
          "indexed": false,
          "internalType": "uint256",
          "name": "timestamp",
          "type": "uint256"
        }
      ],
      "name": "DataPointApproved",
      "type": "event"
    },
    {
      "anonymous": false,
      "inputs": [
        {
          "indexed": false,
          "internalType": "uint256",
          "name": "assetId",
          "type": "uint256"
        },
        {
          "indexed": false,
          "internalType": "string",
          "name": "dataPointName",
          "type": "string"
        },
        {
          "indexed": false,
          "internalType": "int256",
          "name": "value",
          "type": "int256"
        },
        {
          "indexed": false,
          "internalType": "uint256",
          "name": "timestamp",
          "type": "uint256"
        }
      ],
      "name": "DataPointQueued",
      "type": "event"
    },
    {
      "anonymous": false,
      "inputs": [
        {
          "indexed": true,
          "internalType": "address",
          "name": "previousOwner",
          "type": "address"
        },
        {
          "indexed": true,
          "internalType": "address",
          "name": "newOwner",
          "type": "address"
        }
      ],
      "name": "OwnershipTransferred",
      "type": "event"
    },
    {
      "inputs": [
        {
          "internalType": "uint256",
          "name": "assetId",
          "type": "uint256"
        },
        {
          "internalType": "string",
          "name": "dataPointName",
          "type": "string"
        },
        {
          "internalType": "int256",
          "name": "value",
          "type": "int256"
        }
      ],
      "name": "addDataPoint",
      "outputs": [],
      "stateMutability": "nonpayable",
      "type": "function"
    },
    {
      "inputs": [
        {
          "internalType": "uint256",
          "name": "assetId",
          "type": "uint256"
        },
        {
          "internalType": "uint256",
          "name": "dataPointIndex",
          "type": "uint256"
        }
      ],
      "name": "approveDataPoint",
      "outputs": [],
      "stateMutability": "nonpayable",
      "type": "function"
    },
    {
      "inputs": [
        {
          "internalType": "uint256",
          "name": "",
          "type": "uint256"
        }
      ],
      "name": "assets",
      "outputs": [
        {
          "internalType": "string",
          "name": "name",
          "type": "string"
        },
        {
          "internalType": "address",
          "name": "assetAddress",
          "type": "address"
        },
        {
          "internalType": "bool",
          "name": "exists",
          "type": "bool"
        }
      ],
      "stateMutability": "view",
      "type": "function"
    },
    {
      "inputs": [],
      "name": "deviationThreshold",
      "outputs": [
        {
          "internalType": "uint256",
          "name": "",
          "type": "uint256"
        }
      ],
      "stateMutability": "view",
      "type": "function"
    },
    {
      "inputs": [
        {
          "internalType": "uint256",
          "name": "assetId",
          "type": "uint256"
        }
      ],
      "name": "getAsset",
      "outputs": [
        {
          "internalType": "string",
          "name": "",
          "type": "string"
        },
        {
          "internalType": "address",
          "name": "",
          "type": "address"
        },
        {
          "internalType": "bool",
          "name": "",
          "type": "bool"
        }
      ],
      "stateMutability": "view",
      "type": "function"
    },
    {
      "inputs": [
        {
          "internalType": "uint256",
          "name": "assetId",
          "type": "uint256"
        },
        {
          "internalType": "uint256",
          "name": "index",
          "type": "uint256"
        }
      ],
      "name": "getDataPoint",
      "outputs": [
        {
          "internalType": "string",
          "name": "",
          "type": "string"
        },
        {
          "internalType": "int256",
          "name": "",
          "type": "int256"
        },
        {
          "internalType": "uint256",
          "name": "",
          "type": "uint256"
        },
        {
          "internalType": "bool",
          "name": "",
          "type": "bool"
        }
      ],
      "stateMutability": "view",
      "type": "function"
    },
    {
      "inputs": [],
      "name": "nextAssetId",
      "outputs": [
        {
          "internalType": "uint256",
          "name": "",
          "type": "uint256"
        }
      ],
      "stateMutability": "view",
      "type": "function"
    },
    {
      "inputs": [],
      "name": "owner",
      "outputs": [
        {
          "internalType": "address",
          "name": "",
          "type": "address"
        }
      ],
      "stateMutability": "view",
      "type": "function"
    },
    {
      "inputs": [
        {
          "internalType": "string",
          "name": "name",
          "type": "string"
        },
        {
          "components": [
            {
              "internalType": "string",
              "name": "name",
              "type": "string"
            },
            {
              "internalType": "int256",
              "name": "value",
              "type": "int256"
            },
            {
              "internalType": "uint256",
              "name": "timestamp",
              "type": "uint256"
            },
            {
              "internalType": "bool",
              "name": "needsApproval",
              "type": "bool"
            }
          ],
          "internalType": "struct AssetManager.DataPoint[]",
          "name": "initialDataPoints",
          "type": "tuple[]"
        }
      ],
      "name": "registerAsset",
      "outputs": [],
      "stateMutability": "nonpayable",
      "type": "function"
    },
    {
      "inputs": [],
      "name": "renounceOwnership",
      "outputs": [],
      "stateMutability": "nonpayable",
      "type": "function"
    },
    {
      "inputs": [
        {
          "internalType": "address",
          "name": "newOwner",
          "type": "address"
        }
      ],
      "name": "transferOwnership",
      "outputs": [],
      "stateMutability": "nonpayable",
      "type": "function"
    }
  ],
  "bytecode": "0x60806040523480156200001157600080fd5b5060405162001ffb38038062001ffb8339818101604052810190620000379190620001d1565b33600073ffffffffffffffffffffffffffffffffffffffff168173ffffffffffffffffffffffffffffffffffffffff1603620000ad5760006040517f1e4fbdf7000000000000000000000000000000000000000000000000000000008152600401620000a4919062000248565b60405180910390fd5b620000be81620000cd60201b60201c565b50806003819055505062000265565b60008060009054906101000a900473ffffffffffffffffffffffffffffffffffffffff169050816000806101000a81548173ffffffffffffffffffffffffffffffffffffffff021916908373ffffffffffffffffffffffffffffffffffffffff1602179055508173ffffffffffffffffffffffffffffffffffffffff168173ffffffffffffffffffffffffffffffffffffffff167f8be0079c531659141344cd1fd0a4f28419497f9722a3daafe3b4186f6b6457e060405160405180910390a35050565b600080fd5b6000819050919050565b620001ab8162000196565b8114620001b757600080fd5b50565b600081519050620001cb81620001a0565b92915050565b600060208284031215620001ea57620001e962000191565b5b6000620001fa84828501620001ba565b91505092915050565b600073ffffffffffffffffffffffffffffffffffffffff82169050919050565b6000620002308262000203565b9050919050565b620002428162000223565b82525050565b60006020820190506200025f600083018462000237565b92915050565b611d8680620002756000396000f3fe608060405234801561001057600080fd5b50600436106100a95760003560e01c8063b9e3b50011610071578063b9e3b50014610143578063cf35bdd01461015f578063d87430bb14610191578063d94ad837146101ad578063eac8f5b8146101cb578063f2fde38b146101fd576100a9565b8063715018a6146100ae5780638da5cb5b146100b85780638ed91318146100d657806399ac407e146100f4578063b70f6ea814610110575b600080fd5b6100b6610219565b005b6100c061022d565b6040516100cd9190610daa565b60405180910390f35b6100de610256565b6040516100eb9190610dde565b60405180910390f35b61010e60048036038101906101099190610e39565b61025c565b005b61012a60048036038101906101259190610e39565b610417565b60405161013a9493929190610f3d565b60405180910390f35b61015d6004803603810190610158919061129a565b610515565b005b61017960048036038101906101749190611312565b610671565b6040516101889392919061133f565b60405180910390f35b6101ab60048036038101906101a6919061137d565b610750565b005b6101b561093a565b6040516101c29190610dde565b60405180910390f35b6101e560048036038101906101e09190611312565b610940565b6040516101f49392919061133f565b60405180910390f35b61021760048036038101906102129190611418565b610a31565b005b610221610ab7565b61022b6000610b3e565b565b60008060009054906101000a900473ffffffffffffffffffffffffffffffffffffffff16905090565b60025481565b610264610ab7565b6001600083815260200190815260200160002060030160009054906101000a900460ff166102c7576040517f08c379a00000000000000000000000000000000000000000000000000000000081526004016102be90611491565b60405180910390fd5b60016000838152602001908152602001600020600201805490508110610322576040517f08c379a0000000000000000000000000000000000000000000000000000000008152600401610319906114fd565b60405180910390fd5b600060016000848152602001908152602001600020600201828154811061034c5761034b61151d565b5b906000526020600020906004020190508060030160009054906101000a900460ff166103ad576040517f08c379a00000000000000000000000000000000000000000000000000000000081526004016103a4906115be565b60405180910390fd5b60008160030160006101000a81548160ff0219169083151502179055507faafc010659a9459f1187d30efc88e49eacb5d53bae9be92126fc47fdc14bb16b83826000018360010154846002015460405161040a94939291906116d7565b60405180910390a1505050565b60606000806000806001600088815260200190815260200160002060020186815481106104475761044661151d565b5b9060005260206000209060040201905080600001816001015482600201548360030160009054906101000a900460ff168380546104839061160d565b80601f01602080910402602001604051908101604052809291908181526020018280546104af9061160d565b80156104fc5780601f106104d1576101008083540402835291602001916104fc565b820191906000526020600020905b8154815290600101906020018083116104df57829003601f168201915b5050505050935094509450945094505092959194509250565b61051d610ab7565b600060016000600254815260200190815260200160002090508281600001908161054791906118ba565b5060018160030160006101000a81548160ff02191690831515021790555060005b825181101561061857816002018382815181106105885761058761151d565b5b6020026020010151908060018154018082558091505060019003906000526020600020906004020160009091909190915060008201518160000190816105ce91906118ba565b50602082015181600101556040820151816002015560608201518160030160006101000a81548160ff02191690831515021790555050508080610610906119bb565b915050610568565b507f5ebbb5c8692c76799b443e70a3ed53973f9ebfb3d8083c30172c30995a18b78b6002548460405161064c929190611a03565b60405180910390a160026000815480929190610667906119bb565b9190505550505050565b60016020528060005260406000206000915090508060000180546106949061160d565b80601f01602080910402602001604051908101604052809291908181526020018280546106c09061160d565b801561070d5780601f106106e25761010080835404028352916020019161070d565b820191906000526020600020905b8154815290600101906020018083116106f057829003601f168201915b5050505050908060010160009054906101000a900473ffffffffffffffffffffffffffffffffffffffff16908060030160009054906101000a900460ff16905083565b610758610ab7565b6001600084815260200190815260200160002060030160009054906101000a900460ff166107bb576040517f08c379a00000000000000000000000000000000000000000000000000000000081526004016107b290611491565b60405180910390fd5b60006001600085815260200190815260200160002090506000806107df8686610c02565b915091506000811561080957600083866107f99190611a33565b90506108058185610d04565b9150505b60006040518060800160405280888152602001878152602001428152602001831515815250905084600201819080600181540180825580915050600190039060005260206000209060040201600090919091909150600082015181600001908161087391906118ba565b50602082015181600101556040820151816002015560608201518160030160006101000a81548160ff021916908315150217905550505081156108f2577f34cf86dd469662af18d9d83480442a55afd5529a304eab4044ffeca60ce839f6888888426040516108e59493929190611a76565b60405180910390a1610930565b7fa8181f2f01ccb529abc0eba0a98b23c66f19f150c34d30b30b969f5129a0440d888888426040516109279493929190611a76565b60405180910390a15b5050505050505050565b60035481565b60606000806000600160008681526020019081526020016000209050806000018160010160009054906101000a900473ffffffffffffffffffffffffffffffffffffffff168260030160009054906101000a900460ff168280546109a39061160d565b80601f01602080910402602001604051908101604052809291908181526020018280546109cf9061160d565b8015610a1c5780601f106109f157610100808354040283529160200191610a1c565b820191906000526020600020905b8154815290600101906020018083116109ff57829003601f168201915b50505050509250935093509350509193909250565b610a39610ab7565b600073ffffffffffffffffffffffffffffffffffffffff168173ffffffffffffffffffffffffffffffffffffffff1603610aab5760006040517f1e4fbdf7000000000000000000000000000000000000000000000000000000008152600401610aa29190610daa565b60405180910390fd5b610ab481610b3e565b50565b610abf610d3f565b73ffffffffffffffffffffffffffffffffffffffff16610add61022d565b73ffffffffffffffffffffffffffffffffffffffff1614610b3c57610b00610d3f565b6040517f118cdaa7000000000000000000000000000000000000000000000000000000008152600401610b339190610daa565b60405180910390fd5b565b60008060009054906101000a900473ffffffffffffffffffffffffffffffffffffffff169050816000806101000a81548173ffffffffffffffffffffffffffffffffffffffff021916908373ffffffffffffffffffffffffffffffffffffffff1602179055508173ffffffffffffffffffffffffffffffffffffffff168173ffffffffffffffffffffffffffffffffffffffff167f8be0079c531659141344cd1fd0a4f28419497f9722a3daafe3b4186f6b6457e060405160405180910390a35050565b6000806000600160008681526020019081526020016000209050600081600201805490501115610cf457600060018260020180549050610c429190611a33565b90505b60008112610cf2576000826002018281548110610c6557610c6461151d565b5b9060005260206000209060040201905085604051602001610c869190611afe565b6040516020818303038152906040528051906020012081600001604051602001610cb09190611b98565b6040516020818303038152906040528051906020012003610cde578060010154600194509450505050610cfd565b508080610cea90611baf565b915050610c45565b505b60008092509250505b9250929050565b6000806064600354610d1585610d47565b610d1f9190611bf7565b610d299190611c9e565b905080610d3585610d47565b1391505092915050565b600033905090565b600080821215610d605781610d5b90611d08565b610d62565b815b9050919050565b600073ffffffffffffffffffffffffffffffffffffffff82169050919050565b6000610d9482610d69565b9050919050565b610da481610d89565b82525050565b6000602082019050610dbf6000830184610d9b565b92915050565b6000819050919050565b610dd881610dc5565b82525050565b6000602082019050610df36000830184610dcf565b92915050565b6000604051905090565b600080fd5b600080fd5b610e1681610dc5565b8114610e2157600080fd5b50565b600081359050610e3381610e0d565b92915050565b60008060408385031215610e5057610e4f610e03565b5b6000610e5e85828601610e24565b9250506020610e6f85828601610e24565b9150509250929050565b600081519050919050565b600082825260208201905092915050565b60005b83811015610eb3578082015181840152602081019050610e98565b60008484015250505050565b6000601f19601f8301169050919050565b6000610edb82610e79565b610ee58185610e84565b9350610ef5818560208601610e95565b610efe81610ebf565b840191505092915050565b6000819050919050565b610f1c81610f09565b82525050565b60008115159050919050565b610f3781610f22565b82525050565b60006080820190508181036000830152610f578187610ed0565b9050610f666020830186610f13565b610f736040830185610dcf565b610f806060830184610f2e565b95945050505050565b600080fd5b600080fd5b7f4e487b7100000000000000000000000000000000000000000000000000000000600052604160045260246000fd5b610fcb82610ebf565b810181811067ffffffffffffffff82111715610fea57610fe9610f93565b5b80604052505050565b6000610ffd610df9565b90506110098282610fc2565b919050565b600067ffffffffffffffff82111561102957611028610f93565b5b61103282610ebf565b9050602081019050919050565b82818337600083830152505050565b600061106161105c8461100e565b610ff3565b90508281526020810184848401111561107d5761107c610f8e565b5b61108884828561103f565b509392505050565b600082601f8301126110a5576110a4610f89565b5b81356110b584826020860161104e565b91505092915050565b600067ffffffffffffffff8211156110d9576110d8610f93565b5b602082029050602081019050919050565b600080fd5b600080fd5b600080fd5b61110281610f09565b811461110d57600080fd5b50565b60008135905061111f816110f9565b92915050565b61112e81610f22565b811461113957600080fd5b50565b60008135905061114b81611125565b92915050565b600060808284031215611167576111666110ef565b5b6111716080610ff3565b9050600082013567ffffffffffffffff811115611191576111906110f4565b5b61119d84828501611090565b60008301525060206111b184828501611110565b60208301525060406111c584828501610e24565b60408301525060606111d98482850161113c565b60608301525092915050565b60006111f86111f3846110be565b610ff3565b9050808382526020820190506020840283018581111561121b5761121a6110ea565b5b835b8181101561126257803567ffffffffffffffff8111156112405761123f610f89565b5b80860161124d8982611151565b8552602085019450505060208101905061121d565b5050509392505050565b600082601f83011261128157611280610f89565b5b81356112918482602086016111e5565b91505092915050565b600080604083850312156112b1576112b0610e03565b5b600083013567ffffffffffffffff8111156112cf576112ce610e08565b5b6112db85828601611090565b925050602083013567ffffffffffffffff8111156112fc576112fb610e08565b5b6113088582860161126c565b9150509250929050565b60006020828403121561132857611327610e03565b5b600061133684828501610e24565b91505092915050565b600060608201905081810360008301526113598186610ed0565b90506113686020830185610d9b565b6113756040830184610f2e565b949350505050565b60008060006060848603121561139657611395610e03565b5b60006113a486828701610e24565b935050602084013567ffffffffffffffff8111156113c5576113c4610e08565b5b6113d186828701611090565b92505060406113e286828701611110565b9150509250925092565b6113f581610d89565b811461140057600080fd5b50565b600081359050611412816113ec565b92915050565b60006020828403121561142e5761142d610e03565b5b600061143c84828501611403565b91505092915050565b7f417373657420646f6573206e6f74206578697374000000000000000000000000600082015250565b600061147b601483610e84565b915061148682611445565b602082019050919050565b600060208201905081810360008301526114aa8161146e565b9050919050565b7f496e76616c6964206461746120706f696e7420696e6465780000000000000000600082015250565b60006114e7601883610e84565b91506114f2826114b1565b602082019050919050565b60006020820190508181036000830152611516816114da565b9050919050565b7f4e487b7100000000000000000000000000000000000000000000000000000000600052603260045260246000fd5b7f4461746120706f696e7420646f6573206e6f74206e65656420617070726f766160008201527f6c00000000000000000000000000000000000000000000000000000000000000602082015250565b60006115a8602183610e84565b91506115b38261154c565b604082019050919050565b600060208201905081810360008301526115d78161159b565b9050919050565b7f4e487b7100000000000000000000000000000000000000000000000000000000600052602260045260246000fd5b6000600282049050600182168061162557607f821691505b602082108103611638576116376115de565b5b50919050565b60008190508160005260206000209050919050565b600081546116608161160d565b61166a8186610e84565b94506001821660008114611685576001811461169b576116ce565b60ff1983168652811515602002860193506116ce565b6116a48561163e565b60005b838110156116c6578154818901526001820191506020810190506116a7565b808801955050505b50505092915050565b60006080820190506116ec6000830187610dcf565b81810360208301526116fe8186611653565b905061170d6040830185610f13565b61171a6060830184610dcf565b95945050505050565b60006020601f8301049050919050565b600082821b905092915050565b6000600883026117707fffffffffffffffffffffffffffffffffffffffffffffffffffffffffffffffff82611733565b61177a8683611733565b95508019841693508086168417925050509392505050565b6000819050919050565b60006117b76117b26117ad84610dc5565b611792565b610dc5565b9050919050565b6000819050919050565b6117d18361179c565b6117e56117dd826117be565b848454611740565b825550505050565b600090565b6117fa6117ed565b6118058184846117c8565b505050565b5b818110156118295761181e6000826117f2565b60018101905061180b565b5050565b601f82111561186e5761183f8161163e565b61184884611723565b81016020851015611857578190505b61186b61186385611723565b83018261180a565b50505b505050565b600082821c905092915050565b600061189160001984600802611873565b1980831691505092915050565b60006118aa8383611880565b9150826002028217905092915050565b6118c382610e79565b67ffffffffffffffff8111156118dc576118db610f93565b5b6118e6825461160d565b6118f182828561182d565b600060209050601f8311600181146119245760008415611912578287015190505b61191c858261189e565b865550611984565b601f1984166119328661163e565b60005b8281101561195a57848901518255600182019150602085019450602081019050611935565b868310156119775784890151611973601f891682611880565b8355505b6001600288020188555050505b505050505050565b7f4e487b7100000000000000000000000000000000000000000000000000000000600052601160045260246000fd5b60006119c682610dc5565b91507fffffffffffffffffffffffffffffffffffffffffffffffffffffffffffffffff82036119f8576119f761198c565b5b600182019050919050565b6000604082019050611a186000830185610dcf565b8181036020830152611a2a8184610ed0565b90509392505050565b6000611a3e82610f09565b9150611a4983610f09565b9250828203905081811260008412168282136000851215161715611a7057611a6f61198c565b5b92915050565b6000608082019050611a8b6000830187610dcf565b8181036020830152611a9d8186610ed0565b9050611aac6040830185610f13565b611ab96060830184610dcf565b95945050505050565b600081905092915050565b6000611ad882610e79565b611ae28185611ac2565b9350611af2818560208601610e95565b80840191505092915050565b6000611b0a8284611acd565b915081905092915050565b60008154611b228161160d565b611b2c8186611ac2565b94506001821660008114611b475760018114611b5c57611b8f565b60ff1983168652811515820286019350611b8f565b611b658561163e565b60005b83811015611b8757815481890152600182019150602081019050611b68565b838801955050505b50505092915050565b6000611ba48284611b15565b915081905092915050565b6000611bba82610f09565b91507f80000000000000000000000000000000000000000000000000000000000000008203611bec57611beb61198c565b5b600182039050919050565b6000611c0282610f09565b9150611c0d83610f09565b9250828202611c1b81610f09565b91507f80000000000000000000000000000000000000000000000000000000000000008414600084121615611c5357611c5261198c565b5b8282058414831517611c6857611c6761198c565b5b5092915050565b7f4e487b7100000000000000000000000000000000000000000000000000000000600052601260045260246000fd5b6000611ca982610f09565b9150611cb483610f09565b925082611cc457611cc3611c6f565b5b600160000383147f800000000000000000000000000000000000000000000000000000000000000083141615611cfd57611cfc61198c565b5b828205905092915050565b6000611d1382610f09565b91507f80000000000000000000000000000000000000000000000000000000000000008203611d4557611d4461198c565b5b81600003905091905056fea2646970667358221220b55cfa46a26193fb6447aed5a8aea29c286d8a792df36d0ff440c341c5d0cee864736f6c63430008140033",
  "linkReferences": {},
  "deployedLinkReferences": {}
}