{
  "_format": "hh-sol-artifact-1",
  "contractName": "AssetManager",
  "sourceName": "contracts/AssetManager.sol",
  "abi": [
    {
      "inputs": [
        {
          "internalType": "uint256",
          "name": "_deviationThreshold",
          "type": "uint256"
        }
      ],
      "stateMutability": "nonpayable",
      "type": "constructor"
    },
    {
      "inputs": [
        {
          "internalType": "address",
          "name": "owner",
          "type": "address"
        }
      ],
      "name": "OwnableInvalidOwner",
      "type": "error"
    },
    {
      "inputs": [
        {
          "internalType": "address",
          "name": "account",
          "type": "address"
        }
      ],
      "name": "OwnableUnauthorizedAccount",
      "type": "error"
    },
    {
      "anonymous": false,
      "inputs": [
        {
          "indexed": false,
          "internalType": "uint256",
          "name": "assetId",
          "type": "uint256"
        },
        {
          "indexed": false,
          "internalType": "string",
          "name": "name",
          "type": "string"
        }
      ],
      "name": "AssetCreated",
      "type": "event"
    },
    {
      "anonymous": false,
      "inputs": [
        {
          "indexed": false,
          "internalType": "uint256",
          "name": "assetId",
          "type": "uint256"
        },
        {
          "indexed": false,
          "internalType": "string",
          "name": "dataPointName",
          "type": "string"
        },
        {
          "indexed": false,
          "internalType": "int256",
          "name": "value",
          "type": "int256"
        }
      ],
      "name": "DataPointAdded",
      "type": "event"
    },
    {
      "anonymous": false,
      "inputs": [
        {
          "indexed": false,
          "internalType": "uint256",
          "name": "assetId",
          "type": "uint256"
        },
        {
          "indexed": false,
          "internalType": "string",
          "name": "dataPointName",
          "type": "string"
        },
        {
          "indexed": false,
          "internalType": "int256",
          "name": "value",
          "type": "int256"
        }
      ],
      "name": "DataPointApproved",
      "type": "event"
    },
    {
      "anonymous": false,
      "inputs": [
        {
          "indexed": false,
          "internalType": "uint256",
          "name": "assetId",
          "type": "uint256"
        },
        {
          "indexed": false,
          "internalType": "string",
          "name": "dataPointName",
          "type": "string"
        },
        {
          "indexed": false,
          "internalType": "int256",
          "name": "value",
          "type": "int256"
        }
      ],
      "name": "DataPointQueued",
      "type": "event"
    },
    {
      "anonymous": false,
      "inputs": [
        {
          "indexed": true,
          "internalType": "address",
          "name": "previousOwner",
          "type": "address"
        },
        {
          "indexed": true,
          "internalType": "address",
          "name": "newOwner",
          "type": "address"
        }
      ],
      "name": "OwnershipTransferred",
      "type": "event"
    },
    {
      "inputs": [
        {
          "internalType": "uint256",
          "name": "assetId",
          "type": "uint256"
        },
        {
          "internalType": "string",
          "name": "dataPointName",
          "type": "string"
        },
        {
          "internalType": "int256",
          "name": "value",
          "type": "int256"
        }
      ],
      "name": "addDataPoint",
      "outputs": [],
      "stateMutability": "nonpayable",
      "type": "function"
    },
    {
      "inputs": [
        {
          "internalType": "uint256",
          "name": "assetId",
          "type": "uint256"
        },
        {
          "internalType": "uint256",
          "name": "dataPointIndex",
          "type": "uint256"
        }
      ],
      "name": "approveDataPoint",
      "outputs": [],
      "stateMutability": "nonpayable",
      "type": "function"
    },
    {
      "inputs": [
        {
          "internalType": "uint256",
          "name": "",
          "type": "uint256"
        }
      ],
      "name": "assets",
      "outputs": [
        {
          "internalType": "string",
          "name": "name",
          "type": "string"
        },
        {
          "internalType": "address",
          "name": "assetAddress",
          "type": "address"
        },
        {
          "internalType": "bool",
          "name": "exists",
          "type": "bool"
        }
      ],
      "stateMutability": "view",
      "type": "function"
    },
    {
      "inputs": [],
      "name": "deviationThreshold",
      "outputs": [
        {
          "internalType": "uint256",
          "name": "",
          "type": "uint256"
        }
      ],
      "stateMutability": "view",
      "type": "function"
    },
    {
      "inputs": [
        {
          "internalType": "uint256",
          "name": "assetId",
          "type": "uint256"
        }
      ],
      "name": "getAsset",
      "outputs": [
        {
          "internalType": "string",
          "name": "",
          "type": "string"
        },
        {
          "internalType": "address",
          "name": "",
          "type": "address"
        },
        {
          "internalType": "bool",
          "name": "",
          "type": "bool"
        }
      ],
      "stateMutability": "view",
      "type": "function"
    },
    {
      "inputs": [
        {
          "internalType": "uint256",
          "name": "assetId",
          "type": "uint256"
        },
        {
          "internalType": "uint256",
          "name": "index",
          "type": "uint256"
        }
      ],
      "name": "getDataPoint",
      "outputs": [
        {
          "internalType": "string",
          "name": "",
          "type": "string"
        },
        {
          "internalType": "int256",
          "name": "",
          "type": "int256"
        },
        {
          "internalType": "bool",
          "name": "",
          "type": "bool"
        }
      ],
      "stateMutability": "view",
      "type": "function"
    },
    {
      "inputs": [],
      "name": "nextAssetId",
      "outputs": [
        {
          "internalType": "uint256",
          "name": "",
          "type": "uint256"
        }
      ],
      "stateMutability": "view",
      "type": "function"
    },
    {
      "inputs": [],
      "name": "owner",
      "outputs": [
        {
          "internalType": "address",
          "name": "",
          "type": "address"
        }
      ],
      "stateMutability": "view",
      "type": "function"
    },
    {
      "inputs": [
        {
          "internalType": "string",
          "name": "name",
          "type": "string"
        },
        {
          "components": [
            {
              "internalType": "string",
              "name": "name",
              "type": "string"
            },
            {
              "internalType": "int256",
              "name": "value",
              "type": "int256"
            },
            {
              "internalType": "bool",
              "name": "needsApproval",
              "type": "bool"
            }
          ],
          "internalType": "struct AssetManager.DataPoint[]",
          "name": "initialDataPoints",
          "type": "tuple[]"
        }
      ],
      "name": "registerAsset",
      "outputs": [],
      "stateMutability": "nonpayable",
      "type": "function"
    },
    {
      "inputs": [],
      "name": "renounceOwnership",
      "outputs": [],
      "stateMutability": "nonpayable",
      "type": "function"
    },
    {
      "inputs": [
        {
          "internalType": "address",
          "name": "newOwner",
          "type": "address"
        }
      ],
      "name": "transferOwnership",
      "outputs": [],
      "stateMutability": "nonpayable",
      "type": "function"
    }
  ],
  "bytecode": "0x60806040523480156200001157600080fd5b5060405162001f8e38038062001f8e8339818101604052810190620000379190620001d1565b33600073ffffffffffffffffffffffffffffffffffffffff168173ffffffffffffffffffffffffffffffffffffffff1603620000ad5760006040517f1e4fbdf7000000000000000000000000000000000000000000000000000000008152600401620000a4919062000248565b60405180910390fd5b620000be81620000cd60201b60201c565b50806003819055505062000265565b60008060009054906101000a900473ffffffffffffffffffffffffffffffffffffffff169050816000806101000a81548173ffffffffffffffffffffffffffffffffffffffff021916908373ffffffffffffffffffffffffffffffffffffffff1602179055508173ffffffffffffffffffffffffffffffffffffffff168173ffffffffffffffffffffffffffffffffffffffff167f8be0079c531659141344cd1fd0a4f28419497f9722a3daafe3b4186f6b6457e060405160405180910390a35050565b600080fd5b6000819050919050565b620001ab8162000196565b8114620001b757600080fd5b50565b600081519050620001cb81620001a0565b92915050565b600060208284031215620001ea57620001e962000191565b5b6000620001fa84828501620001ba565b91505092915050565b600073ffffffffffffffffffffffffffffffffffffffff82169050919050565b6000620002308262000203565b9050919050565b620002428162000223565b82525050565b60006020820190506200025f600083018462000237565b92915050565b611d1980620002756000396000f3fe608060405234801561001057600080fd5b50600436106100a95760003560e01c8063b70f6ea811610071578063b70f6ea81461012c578063cf35bdd01461015e578063d87430bb14610190578063d94ad837146101ac578063eac8f5b8146101ca578063f2fde38b146101fc576100a9565b8063715018a6146100ae5780638da5cb5b146100b85780638ed91318146100d657806399ac407e146100f4578063ad7b0c4614610110575b600080fd5b6100b6610218565b005b6100c061022c565b6040516100cd9190610d7b565b60405180910390f35b6100de610255565b6040516100eb9190610daf565b60405180910390f35b61010e60048036038101906101099190610e0a565b61025b565b005b61012a6004803603810190610125919061116e565b610410565b005b61014660048036038101906101419190610e0a565b610562565b60405161015593929190611283565b60405180910390f35b610178600480360381019061017391906112c1565b610656565b604051610187939291906112ee565b60405180910390f35b6101aa60048036038101906101a5919061132c565b610735565b005b6101b461090b565b6040516101c19190610daf565b60405180910390f35b6101e460048036038101906101df91906112c1565b610911565b6040516101f3939291906112ee565b60405180910390f35b610216600480360381019061021191906113c7565b610a02565b005b610220610a88565b61022a6000610b0f565b565b60008060009054906101000a900473ffffffffffffffffffffffffffffffffffffffff16905090565b60025481565b610263610a88565b6001600083815260200190815260200160002060030160009054906101000a900460ff166102c6576040517f08c379a00000000000000000000000000000000000000000000000000000000081526004016102bd90611440565b60405180910390fd5b60016000838152602001908152602001600020600201805490508110610321576040517f08c379a0000000000000000000000000000000000000000000000000000000008152600401610318906114ac565b60405180910390fd5b600060016000848152602001908152602001600020600201828154811061034b5761034a6114cc565b5b906000526020600020906003020190508060020160009054906101000a900460ff166103ac576040517f08c379a00000000000000000000000000000000000000000000000000000000081526004016103a39061156d565b60405180910390fd5b60008160020160006101000a81548160ff0219169083151502179055507f077c9c50ce3baaf686da82c375766d43fc5974a2285ce68b147821b1e31cc3398382600001836001015460405161040393929190611686565b60405180910390a1505050565b610418610a88565b6000600160006002548152602001908152602001600020905082816000019081610442919061185b565b5060018160030160006101000a81548160ff02191690831515021790555060005b82518110156105095781600201838281518110610483576104826114cc565b5b6020026020010151908060018154018082558091505060019003906000526020600020906003020160009091909190915060008201518160000190816104c9919061185b565b506020820151816001015560408201518160020160006101000a81548160ff021916908315150217905550505080806105019061195c565b915050610463565b507f5ebbb5c8692c76799b443e70a3ed53973f9ebfb3d8083c30172c30995a18b78b6002548460405161053d9291906119a4565b60405180910390a1600260008154809291906105589061195c565b9190505550505050565b60606000806000600160008781526020019081526020016000206002018581548110610591576105906114cc565b5b906000526020600020906003020190508060000181600101548260020160009054906101000a900460ff168280546105c8906115bc565b80601f01602080910402602001604051908101604052809291908181526020018280546105f4906115bc565b80156106415780601f1061061657610100808354040283529160200191610641565b820191906000526020600020905b81548152906001019060200180831161062457829003601f168201915b50505050509250935093509350509250925092565b6001602052806000526040600020600091509050806000018054610679906115bc565b80601f01602080910402602001604051908101604052809291908181526020018280546106a5906115bc565b80156106f25780601f106106c7576101008083540402835291602001916106f2565b820191906000526020600020905b8154815290600101906020018083116106d557829003601f168201915b5050505050908060010160009054906101000a900473ffffffffffffffffffffffffffffffffffffffff16908060030160009054906101000a900460ff16905083565b61073d610a88565b6001600084815260200190815260200160002060030160009054906101000a900460ff166107a0576040517f08c379a000000000000000000000000000000000000000000000000000000000815260040161079790611440565b60405180910390fd5b60006001600085815260200190815260200160002090506000806107c48686610bd3565b91509150600081156107ee57600083866107de91906119d4565b90506107ea8185610cd5565b9150505b600060405180606001604052808881526020018781526020018315158152509050846002018190806001815401808255809150506001900390600052602060002090600302016000909190919091506000820151816000019081610852919061185b565b506020820151816001015560408201518160020160006101000a81548160ff021916908315150217905550505081156108c5577fd9350f6c2f2b084b5c0da8e40e07cc8e256cd09f10a84bee5d263ab505c2bd608888886040516108b893929190611a17565b60405180910390a1610901565b7f51850e43672534a2856b9cc3851ddd1fd5ef3744e8f2ded62cb6b720a93bf3f88888886040516108f893929190611a17565b60405180910390a15b5050505050505050565b60035481565b60606000806000600160008681526020019081526020016000209050806000018160010160009054906101000a900473ffffffffffffffffffffffffffffffffffffffff168260030160009054906101000a900460ff16828054610974906115bc565b80601f01602080910402602001604051908101604052809291908181526020018280546109a0906115bc565b80156109ed5780601f106109c2576101008083540402835291602001916109ed565b820191906000526020600020905b8154815290600101906020018083116109d057829003601f168201915b50505050509250935093509350509193909250565b610a0a610a88565b600073ffffffffffffffffffffffffffffffffffffffff168173ffffffffffffffffffffffffffffffffffffffff1603610a7c5760006040517f1e4fbdf7000000000000000000000000000000000000000000000000000000008152600401610a739190610d7b565b60405180910390fd5b610a8581610b0f565b50565b610a90610d10565b73ffffffffffffffffffffffffffffffffffffffff16610aae61022c565b73ffffffffffffffffffffffffffffffffffffffff1614610b0d57610ad1610d10565b6040517f118cdaa7000000000000000000000000000000000000000000000000000000008152600401610b049190610d7b565b60405180910390fd5b565b60008060009054906101000a900473ffffffffffffffffffffffffffffffffffffffff169050816000806101000a81548173ffffffffffffffffffffffffffffffffffffffff021916908373ffffffffffffffffffffffffffffffffffffffff1602179055508173ffffffffffffffffffffffffffffffffffffffff168173ffffffffffffffffffffffffffffffffffffffff167f8be0079c531659141344cd1fd0a4f28419497f9722a3daafe3b4186f6b6457e060405160405180910390a35050565b6000806000600160008681526020019081526020016000209050600081600201805490501115610cc557600060018260020180549050610c1391906119d4565b90505b60008112610cc3576000826002018281548110610c3657610c356114cc565b5b9060005260206000209060030201905085604051602001610c579190611a91565b6040516020818303038152906040528051906020012081600001604051602001610c819190611b2b565b6040516020818303038152906040528051906020012003610caf578060010154600194509450505050610cce565b508080610cbb90611b42565b915050610c16565b505b60008092509250505b9250929050565b6000806064600354610ce685610d18565b610cf09190611b8a565b610cfa9190611c31565b905080610d0685610d18565b1391505092915050565b600033905090565b600080821215610d315781610d2c90611c9b565b610d33565b815b9050919050565b600073ffffffffffffffffffffffffffffffffffffffff82169050919050565b6000610d6582610d3a565b9050919050565b610d7581610d5a565b82525050565b6000602082019050610d906000830184610d6c565b92915050565b6000819050919050565b610da981610d96565b82525050565b6000602082019050610dc46000830184610da0565b92915050565b6000604051905090565b600080fd5b600080fd5b610de781610d96565b8114610df257600080fd5b50565b600081359050610e0481610dde565b92915050565b60008060408385031215610e2157610e20610dd4565b5b6000610e2f85828601610df5565b9250506020610e4085828601610df5565b9150509250929050565b600080fd5b600080fd5b6000601f19601f8301169050919050565b7f4e487b7100000000000000000000000000000000000000000000000000000000600052604160045260246000fd5b610e9d82610e54565b810181811067ffffffffffffffff82111715610ebc57610ebb610e65565b5b80604052505050565b6000610ecf610dca565b9050610edb8282610e94565b919050565b600067ffffffffffffffff821115610efb57610efa610e65565b5b610f0482610e54565b9050602081019050919050565b82818337600083830152505050565b6000610f33610f2e84610ee0565b610ec5565b905082815260208101848484011115610f4f57610f4e610e4f565b5b610f5a848285610f11565b509392505050565b600082601f830112610f7757610f76610e4a565b5b8135610f87848260208601610f20565b91505092915050565b600067ffffffffffffffff821115610fab57610faa610e65565b5b602082029050602081019050919050565b600080fd5b600080fd5b600080fd5b6000819050919050565b610fde81610fcb565b8114610fe957600080fd5b50565b600081359050610ffb81610fd5565b92915050565b60008115159050919050565b61101681611001565b811461102157600080fd5b50565b6000813590506110338161100d565b92915050565b60006060828403121561104f5761104e610fc1565b5b6110596060610ec5565b9050600082013567ffffffffffffffff81111561107957611078610fc6565b5b61108584828501610f62565b600083015250602061109984828501610fec565b60208301525060406110ad84828501611024565b60408301525092915050565b60006110cc6110c784610f90565b610ec5565b905080838252602082019050602084028301858111156110ef576110ee610fbc565b5b835b8181101561113657803567ffffffffffffffff81111561111457611113610e4a565b5b8086016111218982611039565b855260208501945050506020810190506110f1565b5050509392505050565b600082601f83011261115557611154610e4a565b5b81356111658482602086016110b9565b91505092915050565b6000806040838503121561118557611184610dd4565b5b600083013567ffffffffffffffff8111156111a3576111a2610dd9565b5b6111af85828601610f62565b925050602083013567ffffffffffffffff8111156111d0576111cf610dd9565b5b6111dc85828601611140565b9150509250929050565b600081519050919050565b600082825260208201905092915050565b60005b83811015611220578082015181840152602081019050611205565b60008484015250505050565b6000611237826111e6565b61124181856111f1565b9350611251818560208601611202565b61125a81610e54565b840191505092915050565b61126e81610fcb565b82525050565b61127d81611001565b82525050565b6000606082019050818103600083015261129d818661122c565b90506112ac6020830185611265565b6112b96040830184611274565b949350505050565b6000602082840312156112d7576112d6610dd4565b5b60006112e584828501610df5565b91505092915050565b60006060820190508181036000830152611308818661122c565b90506113176020830185610d6c565b6113246040830184611274565b949350505050565b60008060006060848603121561134557611344610dd4565b5b600061135386828701610df5565b935050602084013567ffffffffffffffff81111561137457611373610dd9565b5b61138086828701610f62565b925050604061139186828701610fec565b9150509250925092565b6113a481610d5a565b81146113af57600080fd5b50565b6000813590506113c18161139b565b92915050565b6000602082840312156113dd576113dc610dd4565b5b60006113eb848285016113b2565b91505092915050565b7f417373657420646f6573206e6f74206578697374000000000000000000000000600082015250565b600061142a6014836111f1565b9150611435826113f4565b602082019050919050565b600060208201905081810360008301526114598161141d565b9050919050565b7f496e76616c6964206461746120706f696e7420696e6465780000000000000000600082015250565b60006114966018836111f1565b91506114a182611460565b602082019050919050565b600060208201905081810360008301526114c581611489565b9050919050565b7f4e487b7100000000000000000000000000000000000000000000000000000000600052603260045260246000fd5b7f4461746120706f696e7420646f6573206e6f74206e65656420617070726f766160008201527f6c00000000000000000000000000000000000000000000000000000000000000602082015250565b60006115576021836111f1565b9150611562826114fb565b604082019050919050565b600060208201905081810360008301526115868161154a565b9050919050565b7f4e487b7100000000000000000000000000000000000000000000000000000000600052602260045260246000fd5b600060028204905060018216806115d457607f821691505b6020821081036115e7576115e661158d565b5b50919050565b60008190508160005260206000209050919050565b6000815461160f816115bc565b61161981866111f1565b94506001821660008114611634576001811461164a5761167d565b60ff19831686528115156020028601935061167d565b611653856115ed565b60005b8381101561167557815481890152600182019150602081019050611656565b808801955050505b50505092915050565b600060608201905061169b6000830186610da0565b81810360208301526116ad8185611602565b90506116bc6040830184611265565b949350505050565b60006020601f8301049050919050565b600082821b905092915050565b6000600883026117117fffffffffffffffffffffffffffffffffffffffffffffffffffffffffffffffff826116d4565b61171b86836116d4565b95508019841693508086168417925050509392505050565b6000819050919050565b600061175861175361174e84610d96565b611733565b610d96565b9050919050565b6000819050919050565b6117728361173d565b61178661177e8261175f565b8484546116e1565b825550505050565b600090565b61179b61178e565b6117a6818484611769565b505050565b5b818110156117ca576117bf600082611793565b6001810190506117ac565b5050565b601f82111561180f576117e0816115ed565b6117e9846116c4565b810160208510156117f8578190505b61180c611804856116c4565b8301826117ab565b50505b505050565b600082821c905092915050565b600061183260001984600802611814565b1980831691505092915050565b600061184b8383611821565b9150826002028217905092915050565b611864826111e6565b67ffffffffffffffff81111561187d5761187c610e65565b5b61188782546115bc565b6118928282856117ce565b600060209050601f8311600181146118c557600084156118b3578287015190505b6118bd858261183f565b865550611925565b601f1984166118d3866115ed565b60005b828110156118fb578489015182556001820191506020850194506020810190506118d6565b868310156119185784890151611914601f891682611821565b8355505b6001600288020188555050505b505050505050565b7f4e487b7100000000000000000000000000000000000000000000000000000000600052601160045260246000fd5b600061196782610d96565b91507fffffffffffffffffffffffffffffffffffffffffffffffffffffffffffffffff82036119995761199861192d565b5b600182019050919050565b60006040820190506119b96000830185610da0565b81810360208301526119cb818461122c565b90509392505050565b60006119df82610fcb565b91506119ea83610fcb565b9250828203905081811260008412168282136000851215161715611a1157611a1061192d565b5b92915050565b6000606082019050611a2c6000830186610da0565b8181036020830152611a3e818561122c565b9050611a4d6040830184611265565b949350505050565b600081905092915050565b6000611a6b826111e6565b611a758185611a55565b9350611a85818560208601611202565b80840191505092915050565b6000611a9d8284611a60565b915081905092915050565b60008154611ab5816115bc565b611abf8186611a55565b94506001821660008114611ada5760018114611aef57611b22565b60ff1983168652811515820286019350611b22565b611af8856115ed565b60005b83811015611b1a57815481890152600182019150602081019050611afb565b838801955050505b50505092915050565b6000611b378284611aa8565b915081905092915050565b6000611b4d82610fcb565b91507f80000000000000000000000000000000000000000000000000000000000000008203611b7f57611b7e61192d565b5b600182039050919050565b6000611b9582610fcb565b9150611ba083610fcb565b9250828202611bae81610fcb565b91507f80000000000000000000000000000000000000000000000000000000000000008414600084121615611be657611be561192d565b5b8282058414831517611bfb57611bfa61192d565b5b5092915050565b7f4e487b7100000000000000000000000000000000000000000000000000000000600052601260045260246000fd5b6000611c3c82610fcb565b9150611c4783610fcb565b925082611c5757611c56611c02565b5b600160000383147f800000000000000000000000000000000000000000000000000000000000000083141615611c9057611c8f61192d565b5b828205905092915050565b6000611ca682610fcb565b91507f80000000000000000000000000000000000000000000000000000000000000008203611cd857611cd761192d565b5b81600003905091905056fea26469706673582212207d24f6f9120f1644f734d4f2f22c2caf940bda3e460e256fa910b18880bea75364736f6c63430008140033",
  "linkReferences": {},
  "deployedLinkReferences": {}
}